:020000040801F1
:10000000DFF874D072B601F0DFFF1C481C490160B4
:100010001C481D491D4A42F8040B116000201C4970
:10002000154A41F8040B9142FFF4FBAF19491A4AF3
:100030001A4B01F0E3FF1A491A4A1B4B01F0DEFF8D
:100040001A4A1B4B01F0E3FF1A491B4A1B4B01F0F4
:10005000D5FF1B4A1B4B01F0DAFF1B491B4A1C4B07
:1000600001F0CCFF1B4A1C4B01F0D1FF01F09CFFBB
:1000700001F029FF7047000000800204000005A283
:10008000002200002300001000000000001088A0E3
:1000900000700204943D01080000000050140000AC
:1000A000EC510108581400005814000058140000C6
:1000B00058160000EC51010860160010D41700100B
:1000C000D4170010301E0010605301080080000497
:1000D0009CAC00049CAC000404B700044BB942B9CA
:1000E000002908BF002802D04FF0FF31084600F079
:1000F0003BB882B0EC462DE9005000F01DF8DDF869
:1001000004E002B00CBC70472DE97043069E144613
:100110001D468046894600F029F804FB01F300FBE8
:100120000533A4FB00451D44B8EB040469EB050549
:10013000C6E90045BDE870832DE97043069E14466C
:10014000804689461D4600F05DF900FB05F504FB7D
:100150000153A0FB04451D44B8EB040469EB0505FD
:10016000C6E90045BDE87083704700BF00292DE94E
:10017000F00FC0F29F800024002BC0F2968015463D
:1001800006460F46002B3ED18A4257D9B2FA82F377
:100190004BB1C3F1200201FA03F720FA02F29D40AD
:1001A000174300FA03F6290CB7FBF1F2330C01FBFD
:1001B000127CA8B243EA0C4700FB02F3BB4209D908
:1001C0007F1902F1FF3C80F00181BB4240F2FE80CA
:1001D000023A2F44FF1AB7FBF1F3B6B201FB1371D9
:1001E00046EA014100FB03F0884208D9491903F1AE
:1001F000FF3780F0ED80884240F2EA80023B43EA1C
:100200000242002303E08B420AD900231A4610461B
:10021000194614B1404261EB4101BDE8F00F70474F
:10022000B3FA83F8B8F1000F40F084808B4202D318
:10023000824200F2DE8000230122E8E712B90123A6
:10024000B3FBF2F5B5FA85F2002A39D17F1B280CF1
:100250001FFA85FC0123B7FBF0F1320C00FB11778C
:1002600042EA07470CFB01F2BA4207D97F1901F1B4
:10027000FF3802D2BA4200F2C1804146BF1AB7FB32
:10028000F0F2B6B200FB127046EA00400CFB02FC32
:10029000844507D9401902F1FF3702D2844500F2A4
:1002A000AB803A4642EA0142B1E7E443524263EB93
:1002B000430364E7404261EB41014FF0FF345BE7E9
:1002C0009540C2F1200327FA03F1280C26FA03F324
:1002D0009740B1FBF0F81F433B0C00FB18111FFACD
:1002E00085FC43EA01410CFB08F38B4206FA02F657
:1002F00008D9491908F1FF3279D28B4277D9A8F190
:1003000002082944C91AB1FBF0F3BFB200FB131174
:1003100047EA01470CFB03F2BA4207D97F1903F100
:10032000FF3160D2BA425ED9023B2F44BF1A43EA82
:10033000084390E7C8F1200203FA08FC25FA02F30B
:1003400043EA0C0C4FEA1C4921FA02F301FA08F7C0
:1003500020FA02F2B3FBF9F1174309FB11333A0C0F
:100360001FFA8CFB42EA03430BFB01FA9A4505FA9C
:1003700008F008D913EB0C0301F1FF3235D29A458E
:1003800033D902396344CAEB0303B3FBF9F209FB27
:100390001233BFB247EA03470BFB02F9B94508D94C
:1003A00017EB0C0702F1FF331BD2B94519D9023AFA
:1003B000674442EA0145A5FB0001C9EB07078F42EC
:1003C0004FF000030AD305D02A4620E7624601E732
:1003D0003B4614E706FA08F68642F5D26A1E002369
:1003E00015E71A46E5E70B46A0E71146CBE790462E
:1003F00088E7434642460AE7023A53E702392F4468
:100400003CE700BF2DE9F00F144605460E46002BD1
:1004100043D18A4253D9B2FA82F757B1C7F12006C5
:1004200020FA06F601FA07F302FA07F41E4300FA6F
:1004300007F5210CB6FBF1F22B0C01FB1267A0B201
:1004400043EA074600FB02F3B34209D9361902F129
:10045000FF3780F0F680B34240F2F380023A264440
:10046000F61AB6FBF1F3ADB201FB136145EA0141A7
:1004700000FB03F0884208D9091903F1FF3680F028
:10048000E280884240F2DF80023B43EA02420023DE
:1004900010461946BDE8F00F70478B424AD8B3FAB0
:1004A00083F6002E4DD18B4202D3824200F2D680D9
:1004B0000023012210461946BDE8F00F704712B91B
:1004C0000124B4FBF2F4B4FA84F2002A7CD1091BB3
:1004D000260CA7B20123B1FBF6F02A0C06FB101183
:1004E00042EA014107FB00F28A4207D9091900F1EB
:1004F000FF3C02D28A4200F2C3806046891AB1FBF7
:10050000F6F2ADB206FB121145EA014507FB02F710
:10051000AF4208D92C1902F1FF3180F09680A74232
:1005200040F29380023A42EA004210461946BDE882
:10053000F00F704700231A4610461946BDE8F00F29
:100540007047C6F1200522FA05F4B3401C434FEA78
:10055000144821FA05F301FA06F720FA05F5B3FB72
:10056000F8FC2F4308FB1C333D0C1FFA84FA45EAC4
:1005700003430AFB0CF9994502FA06FB04D91B193F
:100580000CF1FF326DD39446C9EB0303B3FBF8F5CE
:1005900008FB1533BFB247EA03470AFB05F8B84525
:1005A00004D93F1905F1FF3361D31D4645EA0C4CD0
:1005B000ACFB0B23C8EB07079F424FF0000549D364
:1005C00045D062462B4663E79440C2F1200321FAEE
:1005D00003FC260C20FA03F301FA02F5BCFBF6F843
:1005E00043EA05010B0C06FB18CCA7B243EA0C4CFE
:1005F00007FB08F3634500FA02F509D91CEB040C6C
:1006000008F1FF323AD2634538D9A8F10208A44470
:10061000C3EB0C0CBCFBF6F389B206FB13CC41EA2E
:100620000C4107FB03F28A4207D9091903F1FF3095
:1006300022D28A4220D9023B2144891A43EA084344
:1006400049E73A460CE733461FE70A466BE7B040F6
:100650009042B6D20CF1FF32002319E733463246FE
:1006600016E799458FD9ACF1020C23448CE7B845C5
:100670009BD9023D274499E70346DEE79046C7E74A
:10068000023821443AE700BF10B5114B1B6813F044
:1006900008031AD000230E4A0121D26A01FA03F49A
:1006A00014420CD09A0002F1204202F509021468AB
:1006B00024F48074A04202D3126C904203D301331D
:1006C000102BE8D101E0084610BD002010BD00BF8E
:1006D000000088A073B53E4B00201B6801901B688A
:1006E0000193019B9B070ED53A4B1B684FF40042C8
:1006F0001A62394A136851680BB1984703E03748CA
:1007000040F2544105E0364C002316E0334840F2F5
:100710006B41344A344B01F0C1FC344A344952F83D
:100720002320C95C12680192019A0131012000FA6C
:1007300001F1114207D12368013323602368284D5A
:10074000052BEAD917E02B4E56F823204FF4004131
:100750009161294951F8332001EBC3035968002AFC
:10076000D4D0002090472B6856F823301A6922F421
:1007700000421A61DFE700232B602368072B25D88E
:100780001E4A1F4952F82320C95C12680192019A3F
:100790000131012000FA01F1114213D0194A52F837
:1007A00023204FF400411161174951F8332001EB28
:1007B000C303596812B10020904703E0074840F294
:1007C0008341A6E7236801332360D6E702B070BDFA
:1007D0001C170010F0160010E81700103F30010839
:1007E00040180010F22F010879300108B0160010EF
:1007F000EA160010C8160010441800106016001009
:10080000E0160010F4160010F017001013B50023C6
:1008100001930824144B154A53F82430A25C1B683A
:100820000193019B0132012101FA02F21A4216D012
:100830000F4B53F824304FF400421A610D4A52F81E
:10084000343002EBC402516813B10020984706E02F
:1008500009480A4A0A4B40F2B44101F01FFC013436
:100860000A2CD7D102B010BD60160010E01600109F
:10087000F4160010F01700103F3001082030010876
:100880007930010810B5212002F06AFB00284FF0F2
:1008900088000CBF0024FF2402F062FB002814BF74
:1008A0002046002010BD08B518B9BDE80840FFF784
:1008B000E9BF2C2002F054FB002814BFFF200020C9
:1008C00008BD000070B5A0F10804092C054615D933
:1008D000FE2011E02B6810225A603B49152000F0E1
:1008E000C7FE152000F0B0FE3849162000F0C0FE0B
:1008F000162000F0A9FE002040B270BD02F018FBE7
:10090000334B5A5D012A0DD13248334A4FF42571D9
:100910002B4601F061FA3148314A324B4FF42571D0
:1009200001F0BCFB01265E552F4D02F009FB55F886
:1009300024200023536055F82420136055F8242008
:10094000936055F82420D36055F82420D36155F8DE
:100950002420072C136353631CD8FFF793FFFF2851
:100960002FD0092C2DD801A353F824F0D508010865
:100970009D090108A1090108A5090108A9090108A3
:10098000AD090108B1090108B5090108B909010853
:10099000BD0901083046FFF786FFE0E76B680EE00F
:1009A000AB6898E7EB680AE02B6994E76B6906E0AF
:1009B000AB6990E7EB6902E02B6A8CE76B6A0B4A44
:1009C0008AE7FD2098E700BFD50601080D08010859
:1009D000D417001045310108E53001083F30010807
:1009E000E82F010879300108F41600101000040007
:1009F00038B5A0F10805092D0C4602D9FE2040B2F9
:100A000038BD0868830703D00A4840F23B3105E04F
:100A1000FFF73AFE30B1074840F24131064A074B32
:100A200001F03CFB064B626853F825305A6322689C
:100A3000DA61E4E73F30010811300108793001083C
:100A4000F41600100838092802D9FE2040B2704779
:100A5000044B53F820305A6842F400425A60002098
:100A6000F4E700BFF416001037B5A0F10804002326
:100A7000092C019303D9FE2040B203B030BD02F02F
:100A800057FA104B53F824301B6801930E4B019911
:100A90001B5D012202FA03F50D4205D101990133D4
:100AA0009A4012EA010503D002F04AFAFD20E3E77A
:100AB00002F046FA054B53F824304FF400429A6096
:100AC0002846D9E760160010E0160010F416001052
:100AD0000838092802D9FE2040B27047044B53F869
:100AE00020305A6822F400425A600020F4E700BF28
:100AF000F41600100838092801D9FE2007E0B1F5E6
:100B0000803F06D2044B53F820300020196040B2D9
:100B10007047FF20FBE700BFF416001008380928D3
:100B200001D9FE2006E03F2906D8044B53F82030B7
:100B30000020196340B27047FF20FBE7F416001055
:100B40000838092802D9FE2040B27047024B53F8FA
:100B5000203000201960F7E78816001008380928AF
:100B600002D9FE2040B27047034B53F820301B6877
:100B70000B700020F6E700BF88160010083809281F
:100B800002D9FE2040B27047034B53F820309B6AD5
:100B90000B600020F6E700BFF416001008380928A3
:100BA00002D9FE2040B27047044B53F820305A6BF4
:100BB0009B6AD31A0B600020F4E700BFF416001004
:100BC0000838092810B502D9FE2040B210BD054BE7
:100BD00053F8304024B943F8301003EBC0004260B2
:100BE0000020F2E7F017001000207047302870B5A1
:100BF00004460E4619D80F2919D8C50802F098F9ED
:100C00000C4B1B6804F0070403EB0512C035A4006D
:100C100003EB05130F21A14006FA04F4C2F8081CE7
:100C20005C6002F08DF9002002E0FE2000E0FF2071
:100C300040B270BD20170010F7B5264B1B5C022B8D
:100C400005460F4602D024487D2111E0234B0121A7
:100C500053F8206000F064FC044617B1304600F001
:100C60003BFC204601A9FFF789FF28B11A488A21D9
:100C70001B4A1C4B01F012FA019B4BB31A4B53F861
:100C8000356003EBC5035F6816B913489421EFE79D
:100C90002046FFF71DFF39460120B0472046FFF7E9
:100CA000D1FE204601A9FFF769FF10B10A489E2135
:100CB000DEE70E4B1C2202FB0535019B6A6993425D
:100CC00006D32046FFF704FF10B10348A421CFE765
:100CD00003B0F0BD9418001094310108F4320108FB
:100CE000C53101087930010874180010AC180010E3
:100CF0002DE9F341204B1E5CF6B2022E04460F464E
:100D000002D01E48BE210EE0002100F009FC05467D
:100D100077BB1B4B53F8347003EBC403D3F8048048
:100D20002FB91648E021174A174B01F0B7F9FFF722
:100D3000CFFE41463046B8472846FFF783FE284697
:100D400001A9FFF72BFF10B10C48EA21EBE70F4B8D
:100D50001C2202FB0434A3686268D21A019B9342EE
:100D600006D32846FFF7B4FE10B10448F221DAE7B3
:100D700002B0BDE8F08100BF941800109431010862
:100D8000741800100632010879300108AC18001000
:100D90000B78487813B10021FFF74EBF1946FFF7D3
:100DA000A7BF0000114B70B553F820400546204600
:100DB00000F08AFB0646C0B92046012100F064FB22
:100DC0003146204600F060FB094A52F8353002EB0C
:100DD000C505696833B90748074A084B4FF4847161
:100DE00001F05CF94FF0FF30984770BDF432010814
:100DF0007418001094310108493201087930010853
:100E00000328F8B505460C4657D80B780C2B0BD8A1
:100E10004B78032B08D88B78012B05D8CB78022B85
:100E20008CBF0023012300E00023002B45D002F0FB
:100E30007FF823494B5D07461BB102F081F8FD2086
:100E40003CE0204A137810466BB91F4E06EBC30EE8
:100E50000022CA54CEF8042046F833200133042B74
:100E6000F3D101230370012338464B5502F068F893
:100E7000164B585D02F074F8064630B11448154A16
:100E8000154B4FF4F77101F009F9144B53F8255045
:100E9000284600F023FB2278114B284653F82210F5
:100EA00000F03EFA28466178A278E37800F0A8FACC
:100EB000284600F0CBFA304600E0FC2040B2F8BDF6
:100EC000941800109818001074180010D7320108F8
:100ED000943101088631010879300108F4320108A3
:100EE0005C3201080328F7B50D46144635D80029B1
:100EF00033D0002A33D01B4A135C022B2DD10021A2
:100F000000F00EFB01A90646FFF748FE18B116488F
:100F10004FF4297112E0019B9C4234BF27461F46C3
:100F2000044600E00134BC420CD03046295DFFF796
:100F300007FE0028F6D00C484FF42C710B4A0C4BDE
:100F400001F0ACF8019B9C4209D13046FFF77AFDD5
:100F500028B1054840F2BB21F0E7002000E0204620
:100F600003B0F0BD94180010943101084F3101080E
:100F7000793001080328F7B50D46144635D8002905
:100F800033D0002A33D01B4A135C022B2DD1012110
:100F900000F0C6FA01A90646FFF7F0FD18B11648A1
:100FA00040F2153112E0019B9C4234BF27461F4698
:100FB000044600E00134BC420CD030462919FFF74A
:100FC000CDFD0028F6D00C4840F221310B4A0C4BE5
:100FD00001F064F8019B9C4209D13046FFF732FDD5
:100FE00028B105484FF44B71F0E7002000E020469F
:100FF00003B0F0BD941800109431010818320108B4
:101000007930010803282DE9F74F044689469346B5
:1010100000F29F80002900F09C8001F089FF4F4B77
:101020001E5DF6B2012E05469A4603D001F088FFF8
:10103000FE208FE00021204600F072FA3146804603
:10104000204600F06DFA464B43F8349003EBC4039E
:10105000DFF82C91C3F804B009EB840B6300594608
:1010600007464046019300F077FA40463D495A460C
:10107000FFF7A6FD019B30B1284601F061FF3A4819
:1010800040F2793112E0013309EB43093846494611
:1010900000F062FA384633494A46FFF791FD48B1FD
:1010A000284601F04DFF30484FF460712F4A304B15
:1010B00000F0F4FFDFF8CC902E4919F9040000F09D
:1010C000D7FA014630B1284601F03AFF264840F2EF
:1010D0008631EBE7284B204653F8247000F020FAC5
:1010E00031468046204600F01BFA0646384600F09E
:1010F000BCF919F9040000F0A7FA4046FFF7A2FC7A
:1011000018B1194840F2463116E03046FFF79AFC14
:1011100018B1154840F24B310EE04046FFF7A4FCF1
:1011200018B111484FF4547106E03046FFF79CFCAB
:1011300020B10D4840F25531104AB8E7384600F06A
:101140002EFA022328460AF8043001F0F9FE0020A6
:1011500000E0FC2040B203B0BDE8F08F941800100E
:1011600074180010910D010894310108DA3101085A
:1011700079300108A5150108F43201082D32010863
:101180009918001090320108032807B513D80C4AAB
:10119000135C022B0FD1012100F0C2F901A9FFF766
:1011A000EDFC30B10748084A084B4FF46F7100F06E
:1011B00075FF019800E0002003B05DF804FB00BF5C
:1011C0009418001094310108613101087930010848
:1011D0000328F7B505460C4600F28F800B68002BFC
:1011E00000F08B80CB68002B00F087804A68464B6C
:1011F0009A4200F28280896899427ED891427CD8D6
:1012000022699A4279D86069984276D8A169994250
:1012100073D8904271D891426FD83C4B5E5DF6B264
:10122000012E6CD10021284600F07AF9314607469C
:10123000284600F075F906463846FFF743FB18B11B
:10124000334840F233410BE023680093384663682B
:1012500001936946FFF7CCFB30B12D4840F23A418B
:101260002C4A2D4B00F01AFF3846A168FFF742FCCC
:1012700018B1274840F23F41F2E73046FFF722FB22
:1012800018B1234840F24541EAE7E368009330464D
:10129000236901936946FFF7ABFB18B11C4840F284
:1012A0004C41DDE730466169FFF724FC18B118486E
:1012B00040F25141D4E73046A169FFF72FFC0646C2
:1012C00018B1134840F25641CAE701F031FE134A03
:1012D00021681C235D435319515162685A60A2680A
:1012E0009A60A2699A61E268DA6022691A616269A9
:1012F0005A6101F025FE304602E0FC2000E0FE20AD
:1013000040B203B0F0BD00BFFFFF01009418001011
:1013100094310108F531010879300108AC1800104A
:10132000F0B5344C05460F460FCC95B06E460FC64F
:101330000FCC0FC694E80300083486E803000FCCF6
:101340000AAE0FC60FCC0FC694E8030000236B63F0
:101350006B65AB6586E8030001F0DAFD28B100F0AB
:1013600061FE4FF47A73584300E023480A223902A1
:1013700002FB00F4B0FBF1F3B4FBF1F1B1FBF2F6C8
:1013800002FB161202B903B9013307FB03F1B0FBEC
:10139000F1F2B2F5807F394401D90133F7E707FB59
:1013A00003F00A21B4FBF0F0B0FBF1F401FB1400F0
:1013B00003216962E968541E41F08006023AEE603A
:1013C0005208DEB2C3F307232E606B60E960AC62A3
:1013D000EA6214AA02EB800353F8502C53F8283C1D
:1013E0006A65AB65054B9F4284BF1223EB6315B062
:1013F000F0BD00BF902F010880BA8C01BFC62D0040
:1014000030B5C5688024C46002294FF6FC7405EA33
:10141000040406D0032907D0012907D144F00104B0
:1014200004E044F0020401E044F0030424F0040466
:10143000A4B2012A08BF44F0040424F03804A4B282
:10144000022B08BF44F01004C46030BDBF22C36843
:10145000C260826892B242F0100282600022C260D2
:101460009BB287228260C3607047C268C36823F062
:101470008003C36043689BB243F005034360C368C5
:1014800013409BB2C360704700290CBF9523932380
:101490008360704783689BB2DA0711D403F03F037F
:1014A000062B06D00C2B0DD0022B0CBF05200020E4
:1014B0007047436913F0100F0CBF012003207047E1
:1014C0000020704702207047436913F00E0F14BFCD
:1014D00000206FF000007047C36C7047BF221023DC
:1014E000C26080218360002303618361C160036067
:1014F0004360C36043608360C2608360C360036114
:10150000C361036243628362C36243638363C363F1
:10151000036443648364C3644363436583657047C2
:10152000032817D8DFE800F002070C1100290CBFD0
:101530000E200F20704700290CBF0820092070479B
:1015400000290CBF0A200B20704700290CBF0C207B
:101550000D2070470F207047083807281ED8DFE895
:1015600000F01108150A190C0E0401230B7000235A
:1015700013E0012304E0012309E001230BE0002331
:101580000B700AE000230B70012306E000230B70B0
:10159000022302E000230B7003234B7070470323E8
:1015A000C36470471E38C0B2022838B596BF144BCA
:1015B00000241C5C134B53F824502846FFF76AFFA5
:1015C000042815D8DFE800F01A09030E1A00204697
:1015D0000121BDE83840FFF72FBB2046BDE8384069
:1015E000FFF7E0BB28460121BDE83840FFF74CBFBC
:1015F0000548064A064BF62100F050FD38BD00BFF5
:1016000004330108F432010894320108DB32010886
:10161000793001080A4A136811467BB9094A52F821
:10162000230003F16042800002F561420133C0B241
:10163000402B82F80003F1D101230B60002070479A
:101640001C19001014330108C3B23F2B0AD8012221
:1016500003F01F03400902FA03F3044A42F8203062
:10166000002000E0FD2040B2704700BF00E100E034
:1016700070B5C6B23F2E04460D4617D8B1B101F081
:1016800057FC06F01F066209012303FA06F66032D2
:10169000084B43F82260084B43F8345003EBC40472
:1016A0000025656001F04CFC284600E0FE2040B2B9
:1016B00070BD00BF00E100E02019001010B5044625
:1016C00001F036FC2060002010BD08B501F038FCA8
:1016D000002008BDD1F8AC30022010B558700820A9
:1016E00098700420D8703C20187180205871012215
:1016F00060201A70D871D1F8B0002B23C373D1F8D1
:10170000B0004373D1F8B0002F248473D1F8B00037
:101710000524C472D1F8B0000273D1F8B02053741C
:10172000162381F8C030B1F8C230B3F5C15F07D1DC
:10173000D1F8B03075229A70D1F8B0307A22DA70D0
:10174000B1F8C230B3F5B15F07D1D1F8B03075222E
:101750009A70D1F8B0307A22DA70024BC1F8D430E6
:10176000002010BDED100000D1F8AC30022210B501
:1017700001205A703C2480229A70DA7018705A71D5
:101780001C71D1F8B0309F229A72D1F8B020352365
:10179000D373D1F8B0205373D1F8B0300522DA7288
:1017A000D1F8B0301873D1F8B03075229A70D1F8F2
:1017B000B0307A22DA70162381F8C030024BC1F8BB
:1017C000D430002010BD00BF9D04000038B5304B60
:1017D0000360304B4360304B8360304BC360304B11
:1017E0000361304B4361304B8361304BC361304BFD
:1017F0000362304B036300252F4B83634562856290
:10180000C56245630C4600F03BF9B0F1807F8CBFA8
:101810000423032384F8C530D4F8B0305D74D4F8C1
:10182000B030AF229A72D4F8B0309F225A72D4F8F6
:10183000B03002221A70D4F8B03020229A71D4F855
:10184000B0305222DA71D4F8B030D8221A72D4F8FB
:10185000B030B0229A70D4F8B0303022DA70D4F8B8
:10186000B03006225A70D4F8B030B9229A74D4F845
:10187000B030AB22DA74D4F8B02005231374A4F886
:10188000B850E560A560257484F8C030002038BDEC
:10189000390C0000F109000025120000430F000080
:1018A000B90D0000A1040000610B0000510A000006
:1018B000F9080000A70400001519010808B591F8FF
:1018C000C120EF2A0DD0F82A11D0C22A13D1D1F8A5
:1018D000C82042F00402C1F8C820BDE80840FFF764
:1018E000F9BED1F8C82042F00202C1F8C820BDE814
:1018F0000840FFF739BF01F003FB0348034A044BDC
:101900004FF4006100F0CAFBE934010854350108C6
:101910007930010810B50C4621B9D0F8D430984779
:10192000204610BD01290BD190F8C120C22A10D148
:1019300043691B68B3F5802F14BF0020C22010BD7F
:1019400001F0DEFA0448054A054B40F61A1100F092
:10195000A5FB002010BD00BFE9340108DB340108FD
:101960007930010870B50C46064678B371B3D1F8EA
:10197000B0505DB3D1F8AC5045B34A60A1F8BA306D
:10198000FFF724FFD4F8B030AF2204F1C1059A72FA
:101990002046294601F0F4FA94F8C130013BDBB24D
:1019A000FD2B08D9D4F8B0309F229A7220462946E0
:1019B00001F0E6FA04E0284600F00CF80028F1D027
:1019C00030462146BDE87040FFF778BF6FF07700E2
:1019D00070BD000070B500220C4B03F110041344DD
:1019E0001444597C00238B4204DAE518AE78C55CB8
:1019F000AE4202D08B4202D106E00133F3E70A3255
:101A0000322AE9D1002070BD012070BDB035010837
:101A100073B5154CB4F90000002822DA6A4600209C
:101A20004FF0006101F094FA002210490A23534359
:101A300001F1100018440B44597C00238B4205DA55
:101A4000C518AE783DF81350AE4203D08B4203D197
:101A5000228004E00133F1E70132052AE5D1B4F92F
:101A6000000002B070BD00BF2C170010B035010897
:101A7000024B0A2202FB003010307047B0350108DB
:101A80004FF48000704700F097B870B520F07840B0
:101A900000239AB2551C01EBC50466683EB154F8A8
:101AA000084CA04207D351F83540A04203D201EBC5
:101AB000C201486870BD0133EBE70000014B1968B3
:101AC000FFF7E3BF201C0010002350F8082B22B1C1
:101AD00050F8041C01FB0233F7E7184670472DE964
:101AE000F843002706461446994600EB01083D4698
:101AF00046451FD230464946FFF7C7FFEA002FB9D7
:101B00002244012344F83500536010E054F83510A6
:101B1000884204EB020302D15A68013206E0013523
:101B2000092D0AD00832A318A05001225A60064499
:101B30000137DDE70020BDE8F8830620BDE8F88323
:101B400070B506460D46144610460021402200F0AE
:101B5000DCFA044B3046294622461B68BDE870403B
:101B6000FFF7BDBF201C001008B590B9FFF750FF6C
:101B70000A4A0028106008DA01F0C2F90848094A48
:101B8000094B40F27B3100F089FAFFF771FF074BF8
:101B90001860074B074A1A6008BD00BF441C0010BC
:101BA00007360108F435010879300108FC1D0010E2
:101BB000241C0010683601082DE9F047DFF8D490A6
:101BC000DFF8D4A0284C294FDFF8D0800020FFF7A1
:101BD000CBFFD9F80030DAF800102548882606FB3C
:101BE0000131244B4A881A60234B01F108021A6024
:101BF0004831402200F080FA204BC4F8AC30204B32
:101C0000C4F8B030FB43DAF800102360D9F8003094
:101C10004FF0006206FB01360025A4F8C650626052
:101C2000404621467368FFF79DFE783008D101F0E9
:101C300067F91448144A154B40F2094100F02EFA96
:101C40000B48134EFFF740FF3A46014630602846E6
:101C5000FFF776FF6761C6F80480B46086F88050AD
:101C60002846BDE8F08700BF141D0010D41C0010EA
:101C7000E01B0010F81D0010201C0010CC1C0010F0
:101C8000281C001007360108433601087930010886
:101C9000481C0010241C0010441C0010A41B001041
:101CA00010B501F025F90D4A1368012B05D1002468
:101CB000146001F05DF920460EE01BB901F058F9FF
:101CC000FE2009E001F054F901F01AF90448054A30
:101CD000054B462100F0E2F940B210BD301700106C
:101CE000283901085F3901087930010808B501F089
:101CF000FFF8094B1A682AB901221A60BDE80840AA
:101D000001F036B901F034F901F0FAF80348044A59
:101D1000044B522100F0C2F9301700102839010895
:101D2000103901087930010808B5FFF7B9FF00281C
:101D3000FBD108BD38B590F880300446BBB9FFF739
:101D4000F3FF6368A0681B6804F10C01984705461F
:101D5000FFF7CCFF002D07DA01F0D2F80448054A5E
:101D6000054BA12100F09AF9012384F8803038BD99
:101D7000283901081C3901087930010810B5074CD1
:101D800094F90030053306D1FFF77DFE0448FFF7D4
:101D9000D1FF00232370002010BD00BFD0A300049A
:101DA000481C001008B5FFF7E9FF002008BD0CB47F
:101DB00037B506AC01A854F8045BFFF77FFC214659
:101DC0002846009400F05CFC0198FFF77EFC03B00D
:101DD000BDE8304002B070470CB437B506AC01A87E
:101DE00054F8045BFFF76AFC21462846009400F093
:101DF00047FC0198FFF769FC03B0BDE8304002B032
:101E000070470000012804BF014B1870704700BFE5
:101E1000181E001030B50020C9B0FEF7E5FE012005
:101E2000FEF7E2FE03210020FEF7E0FE0321012081
:101E3000FEF7DCFE092300248DF8003069460323F9
:101E400002208DF801308DF803408DF80240FEF736
:101E5000D7FF1E23174A079396214FF480730492ED
:101E600005931A440691029301A93223022001929C
:101E70000393FFF7ADF9104922460220FFF7C2F89D
:101E800002200E494122FFF72DF80D4C2378002B3C
:101E9000FBD00220FFF778F9054608A92A46022060
:101EA000FFF768F8022008A92A46FFF71BF800236D
:101EB0002370EAE758140000051E0108BA3901082A
:101EC000181E0010704708B501F02AF800F03CF821
:101ED000FFF768FFFFF79EFB62B661B6FFF79AFF58
:101EE0000020704700207047012070470020704795
:101EF00000207047012070474FF0FF3070474FF0CF
:101F0000FF307047EFF30882064B186808B906489F
:101F10001860186801448A422ABF024B4FF0FF3014
:101F2000196070471C1E001004B7000470B50E46FF
:101F300015460024AC4204DA305DFFF7C3FF0134DC
:101F4000F8E7284670BD0000104B5A68104BC2F3EA
:101F5000C302082A0CD8DFE802F00B0B05050507C1
:101F6000090709000B4A04E00B4A02E00B4A00E0B3
:101F70000B4A1A600B4A1268520505D51B68054AC0
:101F8000934284BF024B1A60704700BF000101A258
:101F9000201E001000EA320600D4650C005F4C09D8
:101FA00080BA8C01400006A2064BD3F8882042F488
:101FB0007002C3F8882000229A605A6A42F4E02234
:101FC0005A62704700ED00E0094B0A4900221A608E
:101FD00013225A6003225A6003F5803211600649C9
:101FE00011640122DA6240F20D321A60704700BFBC
:101FF000000088A00001010800003E089A423EBF90
:1020000051F8040B42F8040BFFF7F8BF70479A42EF
:102010003EBF002042F8040BFFF7F9BF7047FFF7FF
:10202000FEBF0000014BD3F82C08704720A4000429
:10203000164B5A68DB6902F00702023AD2B2042A50
:1020400003F01F030CD8012101FA02F212F0140F61
:1020500008D112F00B0F0E480E4A18BF104602E0CE
:102060000B4800E00C48082B0FD8DFE803F0050709
:10207000090E0B0E0E0E0D00400970470009704747
:10208000C00870478008704740087047000101A2EF
:1020900080BA8C010026B803007519031FB50646E7
:1020A00008480068C06812B11546074C01E0074CAB
:1020B00025461A468DE832003346054900F00AF8F5
:1020C00000F0B6FBD0170010BD3C0108FA3901083A
:1020D000CA3C01080EB403B5014603AB054853F8EA
:1020E000042B0068019300F041F802B05DF804EBA6
:1020F00003B07047D017001010B50023934203D0EF
:10210000CC5CC4540133F9E710BD0244034693424A
:1021100002D003F8011BFAE770479368013B002BDC
:1021200010B5936005DA9469A34208DBCBB20A2BA1
:1021300005D01368581C10601970C8B210BDBDE8F6
:10214000104000F0B3BAF8B505460E461446D7184D
:10215000BC4208D0284614F8011B3246FFF7DDFFC9
:10216000431CF5D100E00020F8BD00002DE9F0434C
:102170009DB00D4617460393064618B183690BB907
:1021800000F05EFC734B9D4201D1756808E0724B14
:102190009D4201D1B56803E0704B9D4208BFF568D0
:1021A000AB8918070AD52B6943B100230993202373
:1021B0008DF8293030238DF82A3038E03046294612
:1021C00000F0C8FA0028F0D04FF0FF30BFE0039ACB
:1021D000111D12680391002A70DB079201342378E5
:1021E0002E2B7DD05E4F21783846032200F0E0FC94
:1021F00030B1C71B049B4020B84003430493013413
:10220000217858488DF828100622671C00F0D0FC71
:10221000002800F08A80544B002B7DD1039B0733AC
:1022200023F0070308330393099B434409933B4678
:102230001C4613F8012B1AB9B4EB07090ED002E0C3
:10224000252AF5D1F8E7304629463A464B46FFF7AE
:102250007AFF013076D0099B4B4409932378002BF9
:1022600070D000234FF0FF3204930793059206933A
:102270008DF853301A9304F101094C463B4F2178F5
:102280003846052200F094FC09F10109049B28B1AD
:10229000C71B0120B84003430493EEE7D90644BFAF
:1022A00020228DF853201A0744BF2B228DF853208B
:1022B00022782A2A8BD0079B214605E0524243F020
:1022C00002030792049389E70C4601312278303AE1
:1022D000092A03D80A2000FB0323F5E707937EE7CA
:1022E00063782A2B0AD1039B1A1D1B680392002BCB
:1022F00004F10204B8BF4FF0FF330BE0611C002370
:102300000C4601312278303A092A03D80A2000FB12
:102310000323F5E7059365E703AB0093304604A973
:102320002A46134BAFF3008007E003AB009330461F
:1023300004A92A460E4B00F08FF8B0F1FF3F80460B
:102340007FF472AFAB895B063FF53EAF09981DB0D5
:10235000BDE8F083343D0108543D0108743D010897
:10236000063D01080A3D010800000000003D01088B
:10237000472101082DE9F84315461F468A680B6975
:10238000DDF820809A42A8BF13462B6091F84320C5
:1023900006460C460AB101332B602368990602D524
:1023A0002B6802332B60236813F006091DD094F8C4
:1023B00043302268003318BF012392061FD5E1186D
:1023C0005A1C302081F84300224494F8451082F8CA
:1023D0004310023313E03046394604F11902012359
:1023E000C047013007D009F10109E2682B68D31A10
:1023F0009945F0DBDBE74FF0FF30BDE8F88330466E
:10240000394604F14302C0470130F4D023682A68FA
:10241000E16803F00603042B08BFC2EB0105236942
:10242000A2680CBF25EAE57500259A42C4BFC3EB3C
:102430000203ED184FF00009A9450ADA3046394683
:1024400004F11A020123C0470130D4D009F1010977
:10245000F2E70020BDE8F8832DE9FF470E7E0C9DD2
:102460006E2E80460C4691469A4601F1430000F0DC
:10247000A58011D8632E22D009D8002E00F0AF809D
:10248000582E40F0BF8081F845607B4A4FE0642EB3
:102490001ED0692E1CD0B5E0732E00F0A48009D8A0
:1024A0006F2E2BD0702E40F0AD800B6843F02003D0
:1024B0000B6038E0752E21D0782E34D0A2E02B6846
:1024C0001A1D1B682A6001F1420781F842309DE025
:1024D00022682B6812F0800F03D01A1D2A601D6835
:1024E00005E05106F9D51A1D2A60B3F90050002DF8
:1024F00039DA2D236D4284F8433034E022682B68AA
:1025000012F0800F03D01A1D2A601D6804E05206E5
:10251000F9D51A1D2A601D88237E574A6F2B14BFD8
:102520000A2308231BE07823544A84F845302368A3
:10253000296813F0800F01F104062E6001D00D68A8
:1025400002E05F06FBD50D88DE0744BF43F02003A1
:1025500023601DB9236823F020032360102300218A
:1025600084F8431001E0444A0A236668A660002EFE
:1025700003DB216821F00401216005B96EB104F18B
:102580004201B5FBF3F603FB16550F46555D01F806
:1025900001593546002EF4D100E00746082B0AD138
:1025A0002368DD0707D5626823699A4203DC30237C
:1025B00007F8013C013FC01B20612CE009682B6833
:1025C000626911F0800F04D0191D29601B681A6020
:1025D00005E04906F8D5191D29601B681A800023FB
:1025E0002361074617E02B681A1D2A601F683846CA
:1025F00000F00DFC63682061984288BF2361236965
:10260000636005E004F1420784F84260012323611E
:10261000002384F84330CDF800A04046214603AAA9
:102620004B46FFF7A7FE013002D14FF0FF301FE00D
:10263000404649463A462369D0470130F5D02368E1
:102640009B0705D4E068039B9842B8BF18460FE08B
:102650000025E268039BD31A9D42F3DA40464946BF
:1026600004F119020123D0470130DED00135F0E733
:1026700004B0BDE8F08700BF113D0108223D01080C
:10268000094B2DE9F0411C6807460E4624B1A569A7
:1026900015B9204600F0D4F92046A1683A463346E1
:1026A000BDE8F041FFF762BDD017001070B50E46CF
:1026B0001446054618B183690BB900F0C1F9224BE5
:1026C0009C4201D16C6808E0204B9C4201D1AC686F
:1026D00003E01F4B9C4208BFEC68A369A360A38979
:1026E0001A0709D523693BB123692068C01A6369B9
:1026F0009842F6B20FDB08E02846214600F02AF89F
:102700000028F1D04FF0FF3070BD2846214600F080
:1027100019F90028F6D1A368013BA36023685A1C6D
:1027200022601E7063690130984204D0A389DB07E0
:1027300007D50A2E05D12846214600F003F90028C6
:10274000E0D1304670BD00BF343D0108543D010862
:10275000743D0108324B70B51D6806460C4625B124
:10276000AB6913B9284600F06BF92E4B9C4201D19E
:102770006C6808E02C4B9C4201D1AC6803E02B4B09
:102780009C4208BFEC68A28993B2190720D4DD06E9
:1027900005D4092342F040023360A2813BE0580790
:1027A00012D5616B41B104F14403994202D0304625
:1027B00000F00EFA00236363A38923F02403A381AE
:1027C0000023636023692360A38943F00803A38186
:1027D00023694BB9A38903F42073B3F5007F03D0B9
:1027E0003046214600F096F9A38913F0010205D086
:1027F0000022A26062695242A26103E0990758BFB9
:102800006269A26022694AB903F0800080B230B1E7
:1028100043F04003A3814FF0FF3070BD002070BD36
:10282000D0170010343D0108543D0108743D0108E3
:1028300008B5062000F08CFA0120FFF760FB8A89BA
:102840002DE9F041054610070C4657D44B68002B84
:1028500002DC0B6C002B18DDE66AB6B102F4805284
:10286000002392B22F682B600AB1626D10E0216ADA
:1028700028460123B047411C024609D12B683BB1D1
:102880001D2B01D0162B46D12F600020BDE8F08112
:10289000A3895B0705D56368D21A636B0BB1236C00
:1028A000D21AE66A216A28460023B047461CA2894C
:1028B00005D12B681BB11D2B01D0162B19D100237C
:1028C0006360D1042369236004D5421C01D12B68C5
:1028D00003B96065616B2F600029D6D004F1440311
:1028E000994202D0284600F073F900206063BDE8E9
:1028F000F08142F04002A281BDE8F0810E69002E15
:10290000C3D00B680E60C6EB030893070CBF4B697E
:1029100000238B6012E0A38943F04003A3814FF0B2
:10292000FF30BDE8F081A76A216A28463246434657
:10293000B8470028EFDD0644C0EB0808B8F1000FE7
:10294000F1DCA2E738B50B6905460C46DBB118B1DE
:1029500083690BB900F074F80C4B9C4201D16C6890
:1029600008E00B4B9C4201D1AC6803E0094B9C4250
:1029700008BFEC68B4F90C302BB128462146BDE8FD
:102980003840FFF75CBF002038BD00BF343D010870
:10299000543D0108743D0108F8B5074600F14804AC
:1029A00094B1A5686668013E0CD4AB89012B07D9A8
:1029B000B5F90E30013303D038462946FFF7C2FF80
:1029C0006835F0E72468EBE7F8BD0000002310B598
:1029D000044603604360836081814366C281036172
:1029E0004361836119465C300822FFF78EFB054B7B
:1029F0006362054BA362054BE362054B24622363CC
:102A000010BD00BF892D0108AB2D0108E32D010881
:102A1000072E010870B54B1E68255D430E4605F173
:102A2000740100F019F9044640B1002180E8420029
:102A30000C30A06005F16802FFF767FB204670BD0F
:102A4000836910B5044633BB8364C3640365124BCA
:102A5000124A1B688262984204BF0123836100F01E
:102A60001FF86060204600F01BF8A060204600F0D0
:102A700017F80421E06000226068FFF7A7FFA06854
:102A800009210122FFF7A2FFE06812210222FFF7CD
:102A90009DFF0123A36110BDFC3C01089929010899
:102AA000F8B51B4B1E68B369074613B93046FFF7EC
:102AB000C7FF4836B4687368013B04D4B4F90C50BE
:102AC00075B16834F8E733682BB938460421FFF74D
:102AD000A1FF306008B13668ECE70C233B60F8BD1D
:102AE0004FF6FF73E3810123A38165662560A5602E
:102AF000656025616561A56104F15C0029460822D5
:102B0000FFF703FB6563A563A564E5642046F8BD94
:102B1000FC3C0108F0B58B899E0791B005460C4638
:102B200026D4B1F90E10002909DAA38913F0800F19
:102B30004FF0000714BF40264FF480660DE001AA55
:102B400000F090F90028F0DB029F07F47047B7F51A
:102B500000514F424F414FF480662846314600F005
:102B60007BF860B9A3899A051DD443F00203A381C1
:102B700004F14703236023610123636113E00B4BDE
:102B8000AB62A389206043F08003A381206166616A
:102B90004FB12846B4F90E1000F076F918B1A389A8
:102BA00043F00103A38111B0F0BD00BF99290108D2
:102BB00010B5C9B202449042034606D01C788C423C
:102BC00000F10100F7D1184610BD002010BD000033
:102BD00030B500293CD051F8042C0B1F1D49002AA8
:102BE000B8BF9B180A680C4612B95A600B6030BD1A
:102BF00093420DD219685818904203D15A58114483
:102C0000426819605A60236030BD994203D80A4671
:102C100051680029F9D1146815199D420AD11B6821
:102C20002344D0188842136012D10868034413600B
:102C30004B680CE002D90C23036030BD18681C18E7
:102C40008C4203D10C684968204418605960536075
:102C500030BD00BF281E001070B5CD1C25F0030547
:102C600008350C2D38BF0C25002D06463FDB8D4264
:102C70003DD3214B1C6818462146A1B10B685B1B54
:102C80000ED40B2B03D90B60CC18CD501FE08C4217
:102C900002D1626802601AE04B6863600C4616E07D
:102CA0000C464968E9E7154C23681BB93046FFF725
:102CB00029F9206029463046FFF724F9431C0146D4
:102CC00015D0C41C24F0030484420AD1256004F109
:102CD0000B00231D20F00700C31A0BD05A42E2500C
:102CE00070BD3046611AFFF70DF90130EED10C23AB
:102CF0003360002070BD00BF281E0010241E00108D
:102D00001F2938B505460C4604D9162303604FF039
:102D1000FF3038BD426C12B152F821304BB9284611
:102D200000F030F8224601462846BDE8384000F061
:102D300017B8012B0AD0591C03D1162303600120B8
:102D400038BD002542F8245020469847002038BD61
:102D5000024B01461868FFF7D3BF00BFD017001021
:102D600038B5074C00230546084611462360FFF797
:102D7000C3F8431C02D1236803B12B6038BD00BFE8
:102D80002C1E0010FFF7B6B810B50C46B1F90E10A6
:102D900000F09CF8002803DB636D0344636510BDFD
:102DA000A38923F48053A38110BD2DE9F0411D4672
:102DB0008B89DB0507460C46164605D5B1F90E1082
:102DC0000022022300F070F8A389B4F90E1023F456
:102DD0008053A381384632462B46BDE8F04100F0CF
:102DE0001FB810B50C46B1F90E1000F05DF8431C89
:102DF000A38903D123F48053A38110BD43F48053EE
:102E0000A381606510BDB1F90E1000F01BB8034638
:102E100013F8012B002AFBD1181A01387047000063
:102E200038B5074C054600202060084611461A4672
:102E3000FFF77CF8431C02D1236803B12B6038BD37
:102E40002C1E001038B5064C0023054608462360AA
:102E5000FFF746F8431C02D1236803B12B6038BD4D
:102E60002C1E001038B5074C0023054608461146B5
:102E70002360FFF737F8431C02D1236803B12B60AE
:102E800038BD00BF2C1E001038B5064C0023054687
:102E900008462360FFF728F8431C02D1236803B1DA
:102EA0002B6038BD2C1E001038B5074C054600209D
:102EB0002060084611461A46FFF718F8431C02D155
:102EC000236803B12B6038BD2C1E001038B5074CA9
:102ED000054600202060084611461A46FFF708F80C
:102EE000431C02D1236803B12B6038BD2C1E001097
:102EF00001B40248844601BC604700BFB30400002F
:102F000001B40248844601BC604700BF510600007E
:102F100001B40248844601BC604700BF698B0004CD
:102F200001B40248844601BC604700BFF9A2000416
:102F300001B40248844601BC604700BFAD83000471
:102F400001B40248844601BC604700BFC18300044D
:102F500001B40248844601BC604700BF5D11000017
:102F600001B40248844601BC604700BF19960004C2
:102F700001B40248844601BC604700BFB7040000AA
:102F800001B40248844601BC604700BF8B100000BA
:102F90000000000000000000200000009000000081
:102FA000A8000000540000006C000000BA000000FF
:102FB000F6000000FE00000000000000000000001D
:102FC0000000000000000000000000000100000000
:102FD00001000000010000000100000001000000ED
:102FE000A55A0000FFFF000076646D615F696E699D
:102FF000740070645F646F6D61696E5F646D615FC2
:10300000696E746572727570745F68616E64657202
:103010000076646D615F636F6E66696775726500E7
:10302000616F5F646F6D61696E5F646D615F696E32
:10303000746572727570745F68616E646572002E7B
:103040002E2F2E2E2F2E2E2F2E2E2F2E2E2F647221
:10305000697665722F636869702F6D74323532330B
:103060002F7372632F68616C5F70646D615F696E4E
:103070007465726E616C2E63003000546869732051
:103080007065726970686572616C20646D6120633F
:1030900068616E6E656C20256420686173206265CE
:1030A000656E20696E697469616C697A6564005443
:1030B000686973207065726970686572616C2064FC
:1030C0006D61206368616E6E656C202564206861A7
:1030D00073206265656E206465696E697469616CF0
:1030E000697A6564005468697320766669666F2042
:1030F000646D61206368616E6E656C202564206874
:103100006173206265656E20696E697469616C69BE
:103110007A6564005468697320766669666F206416
:103120006D61206368616E6E656C20256420686146
:1031300073206265656E206465696E697469616C8F
:10314000697A65640076646D615F696E69740068B0
:10315000616C5F756172745F73656E645F646D61ED
:103160000068616C5F756172745F6765745F61763A
:1031700061696C61626C655F726563656976655FE4
:1031800062797465730068616C5F756172745F6900
:103190006E6974002E2E2F2E2E2F2E2E2F2E2E2FB8
:1031A0002E2E2F6472697665722F636869702F6D99
:1031B00074323532332F7372632F68616C5F7561BF
:1031C00072742E6300756172745F726563656976EF
:1031D000655F68616E646C65720068616C5F7561E3
:1031E00072745F72656769737465725F63616C6C3A
:1031F0006261636B0068616C5F756172745F7365B7
:10320000745F646D6100756172745F73656E645F95
:1032100068616E646C65720068616C5F7561727480
:103220005F726563656976655F646D610075617283
:10323000745F73746172745F646D615F7472616EE8
:10324000736D697373696F6E00756172745F657217
:10325000726F725F68616E646C6572006E00000070
:103260002C010000B004000060090000C012000042
:1032700080250000004B00000096000000E10000E7
:1032800000C20100008403000008070000100E00C7
:103290001D1E1F202E2E2F2E2E2F2E2E2F2E2E2F88
:1032A0002E2E2F6472697665722F636869702F6D98
:1032B00074323532332F7372632F68616C5F7561BE
:1032C00072745F696E7465726E616C5F706C61744C
:1032D000666F726D2E63002D2E2F30756172745FD4
:1032E000696E746572727570745F68616E646C6526
:1032F0007200000000000DA000000EA000000FA052
:10330000000010A0010203697372435F6D61696E72
:10331000000000000500000044000000070000005D
:1033200008000000440000004400000044000000C9
:10333000440000000D0000000E0000000F0000001F
:103340001000000011000000120000001300000037
:103350001400000015000000160000001700000017
:1033600018000000190000001A0000001B000000F7
:103370001C0000001D0000001E0000001F000000D7
:103380004400000021000000220000002300000093
:103390002400000025000000260000002700000097
:1033A0002800000044000000440000002B00000042
:1033B0002C0000001A0000002E0000002F0000006A
:1033C0003000000031000000320000003300000037
:1033D000340000003500000036000000440000000A
:1033E00044000000440000004400000044000000CD
:1033F00044000000440000004400000044000000BD
:1034000044000000440000004400000044000000AC
:10341000440000004552524F523A206E6F204952EC
:10342000512068616E646C657221200A0053464920
:103430005F426C616E6B436865636B002E2E2F2EAE
:103440002E2F2E2E2F2E2E2F2E2E2F647269766564
:10345000722F636869702F6D74323532332F737237
:10346000632F68616C5F666C6173685F6D74645F25
:10347000636F6D6D6F6E2E63005346495F4D6163E0
:10348000456E61626C650053465F44414C5F436822
:1034900065636B446576696365526561647900466E
:1034A0006C6173685F53757370656E644F7065729D
:1034B0006174696F6E0053465F44414C5F467265AC
:1034C000654465764C6F636B00466C6173685F5250
:1034D000657475726E52656164790053465F44414C
:1034E0004C5F494F4374726C002E2E2F2E2E2F2EC0
:1034F0002E2F2E2E2F2E2E2F6472697665722F633B
:103500006869702F6D74323532332F7372632F6890
:10351000616C5F666C6173685F6D74645F64616C3D
:103520002E630053465F44414C5F436865636B52B2
:1035300065616479416E64526573756D6500466CB2
:103540006173685F526573756D654F706572617404
:10355000696F6E0053465F44414C5F496E69745F0A
:1035600056656E646F720053465F44414C5F507203
:103570006F6772616D446174610072657472696530
:1035800076655F4D54445F6C6F636B0053465F44D8
:10359000414C5F4572617365426C6F636B00466CB2
:1035A0006173685F436865636B52656164790000AD
:1035B0004D4D4D01440002010100000005000000D6
:1035C0000303C2281600000000000303C2281500F0
:1035D000000000000303EF7016000000000003036A
:1035E000C2253800000000000303EF40180000006F
:1035F00000000000434D454D5F496E69745F6E6F7A
:10360000725F6C697374002E2E2F2E2E2F2E2E2F8C
:103610002E2E2F2E2E2F6472697665722F636869A5
:10362000702F6D74323532332F7372632F68616C73
:103630005F666C6173685F636F6D626F5F6E6F7200
:103640002E6300434D454D5F496E69745F46756C4E
:103650006C447269766572004D4D4D01B8020301EC
:1036600002000000050000000000400064000000AF
:10367000000000000010000000000000000000003A
:10368000000000000000000000000000000000003A
:10369000000000000000000000000000000000002A
:1036A000000000000000000000000000000000001A
:1036B00000004000010000000000000000000000C9
:1036C00000000000000000000000000000000000FA
:1036D00000000000000000000000000000000000EA
:1036E00000000000000000000000000000000000DA
:1036F0000000400064000000000000000010000016
:1037000000000000000000000000000000000000B9
:1037100000000000000000000000000000000000A9
:103720000000000000000000000000000000000099
:103730000000000000000000000040000100000048
:103740000000000000000000000000000000000079
:103750000000000000000000000000000000000069
:103760000000000000000000000000000000000059
:1037700000000000000000000000400064000000A5
:103780000000000000100000000000000000000029
:103790000000000000000000000000000000000029
:1037A0000000000000000000000000000000000019
:1037B0000000000000000000000000000000000009
:1037C00000004000010000000000000000000000B8
:1037D00000000000000000000000000000000000E9
:1037E00000000000000000000000000000000000D9
:1037F00000000000000000000000000000000000C9
:103800000000400064000000000000000010000004
:1038100000000000000000000000000000000000A8
:103820000000000000000000000000000000000098
:103830000000000000000000000000000000000088
:103840000000000000000000000040000100000037
:103850000000000000000000000000000000000068
:103860000000000000000000000000000000000058
:103870000000000000000000000000000000000048
:103880000000000000000000000040006400000094
:103890000000000000100000000000000000000018
:1038A0000000000000000000000000000000000018
:1038B0000000000000000000000000000000000008
:1038C00000000000000000000000000000000000F8
:1038D00000004000010000000000000000000000A7
:1038E00000000000000000000000000000000000D8
:1038F00000000000000000000000000000000000C8
:1039000000000000000000000000000000000000B7
:103910004672656546444D4C6F636B004D6F756E26
:1039200074446576696365002E2E2F2E2E2F2E2E61
:103930002F2E2E2F2E2E2F6472697665722F6368BC
:1039400069702F6D74323532332F7372632F686153
:103950006C5F666C6173685F6469736B2E630047AC
:10396000657446444D4C6F636B0044656C617941EE
:103970005768696C655F555354002E2E2F2E2E2FDD
:103980002E2E2F2E2E2F2E2E2F6472697665722FDB
:10399000636869702F6D74323532332F7372632F01
:1039A00068616C5F666C6173685F6D74642E630040
:1039B0004D617057696E646F77000D0A0D0A506C87
:1039C0006561736520696E7075742064617461202F
:1039D000746F2074686973205541525420706F725F
:1039E0007420616E64207761746368206974277342
:1039F000206F75747075743A0D0A00636C6F636B99
:103A00005F6368616E67655F6269745F766572693E
:103A1000666965645F616C6C00636C6F636B5F64A7
:103A2000756D705F696E666F002E2E2F2E2E2F2EF5
:103A30002E2F2E2E2F2E2E2F6472697665722F63F5
:103A40006869702F6D74323532332F7372635F6320
:103A50006F72652F68616C5F636C6F636B2E6300C0
:103A600025733A2050444E5F434F4E44303D3078EA
:103A700025782C2050444E5F434F4E44313D3078E2
:103A800025782C2050444E5F434F4E44323D3078D1
:103A900025782C20434D5F50444E5F434F4E4430B9
:103AA0003D307825782C20414346475F434C4B5F9F
:103AB00043473D307825780D0A0025733A20286465
:103AC00069766964657229434C4B5F434F4E4441AC
:103AD0003D307825782C20286D757829434C4B5F34
:103AE000434F4E44423D307825782C20286D757820
:103AF000294D534443305F4346473D307825782C69
:103B000020286D7578294D534443315F4346473D26
:103B1000307825782C2028706C6C5F726571294391
:103B20004C4B5F434F4E44433D307825782C202842
:103B3000666F7263655F6F6E29434C4B5F434F4EF8
:103B400044443D307825782C2028736F7572636566
:103B500029434C4B5F534F555243455F53454C3DB2
:103B6000307825782C20286368616E67655F62690C
:103B70007429414346475F434C4B5F555044415481
:103B8000453D307825780D0A0025733A2044415F81
:103B90005352434C4B454E413D307825782C2044C0
:103BA000415F55504C4C5F454E3D307825780D0AAD
:103BB0000025733A2052475F4D4444535F454E3DC4
:103BC000307825782C2044415F4D504C4C5F454E59
:103BD0003D307825780D0A0025733A2044415F4C2A
:103BE000464F53435F454E3D307825782C20444165
:103BF0005F48464F53435F454E3D307825780D0A68
:103C00000025733A20414346475F544553545F4370
:103C10004F4E313D307825782C206463786F5F6695
:103C200032366D5F72656164793D25640D0A004C22
:103C3000464F5343004443584F0025733A20434CAA
:103C40004B5F5553455F25732C20636D345F66725F
:103C500065713D25642C206275735F667265713DE8
:103C600025642C206C666F73633D25642C2065668B
:103C70007573655F646174613D307825782C2070C0
:103C80006572695F6275733D25640A00636C6F63DA
:103C90006B5F64756D705F6C6F670067656E6572F2
:103CA000616C5F636C6F636B5F6368616E67655FB8
:103CB0006269745F7665726966696564002C206666
:103CC000756E6374696F6E3A200061737365727408
:103CD000696F6E2022257322206661696C65643AE3
:103CE0002066696C6520222573222C206C696E6524
:103CF000202564257325730A00000000701700104A
:103D0000232D302B2000686C4C00656667454647C4
:103D10000030313233343536373839414243444547
:103D200046003031323334353637383961626364B6
:103D300065660000000000000000000000000000B8
:103D40000000000000000000000000000000000073
:103D50000000000000000000000000000000000063
:103D60000000000000000000000000000000000053
:103D70000000000000000000000000000000000043
:103D80000000000000000000000000000000000033
:043D9000000000002F
:103D940000800204010001081F2001081F200108FF
:103DA4001F2001081F2001081F2001080000000037
:103DB4000000000000000000000000001F200108B7
:103DC4001F200108000000001F2001081F20010817
:103DD400558300045583000455830004558300046F
:103DE400558300045583000455830004558300045F
:103DF400558300045583000455830004558300044F
:103E0400558300045583000455830004558300043E
:103E1400558300045583000455830004558300042E
:103E2400558300045583000455830004558300041E
:103E3400558300045583000455830004558300040E
:103E440055830004558300045583000455830004FE
:103E540055830004558300045583000455830004EE
:103E640055830004558300045583000455830004DE
:103E740055830004558300045583000455830004CE
:103E840055830004558300045583000455830004BE
:103E940055830004558300045583000455830004AE
:103EA400558300045583000455830004558300049E
:103EB400558300045583000455830004558300048E
:103EC400558300045583000455830004558300047E
:103ED40010B5044601F0E4F8A16980080023834288
:103EE4000DD051F82320013207D000F079FA0448AC
:103EF400044A054B332101F06BF90133EFE710BDA0
:103F04003C3401082D3401087930010800BA7047A7
:103F140070B5044610460D461E46FFF7F7FF032E04
:103F240004BF20F0FF031D430A4B1CBF45EA0025D4
:103F3400000E1D605860A3F50063013600221E6167
:103F440020465A6101F00CF92046BDE8704001F0AA
:103F540027B900BF000804A010B504460846FFF7BF
:103F6400D5FFE4B264F3070010BD73B504460846F8
:103F74001E461546FFF7CAFF0346E4B21B0E44EA89
:103F840000208DF8043001212C6801AB14F8012BBA
:103F9400CA54013104292C60F6D13368019A032BE9
:103FA4008CBF033B00233360014B5A6002B070BDE9
:103FB400000804A037B500F120438D0703F58123E1
:103FC40011D1841804F1204404F58124E41A002C4E
:103FD40031DD0C1A1C4404F1C044A4F58124246886
:103FE40043F8044BEDE7CC0721D403461418E41A34
:103FF400002C20DD0C1AE55AADF804501C446488EA
:10400400ADF8064003F1204404F58124019D2560A8
:104014000433EBE7904206D001AC11F8015B05557F
:1040240001300428F6D1019843F8040B043A002A1D
:1040340001DD0020F0E703B030BD2DE9F7431E4653
:10404400BDF82880194B074691460025B54213D286
:10405400002201922C462A1D944208D001A8401B3C
:1040640011F804E000F804E00134B442F4D30198F8
:1040740043F8040B2546E9E70D4B38461E61C3F8A7
:10408400148001F06DF806F12046384601F088F8F6
:1040940006F581260021414504D2735C09F80130FC
:1040A4000131F8E703B0BDE8F08300BF000804A0C5
:1040B400000004A02DE9F043054685B00E46002912
:1040C40059D02E4B5B68002403F00108325DCAB15D
:1040D400022A2A4B02D9032A09D013E01DB95A68CF
:1040E40022F0010207E01A6C22F0010208E025B96F
:1040F4005A6842F001025A601CE01A6C42F0010254
:104104001A6417E01D4B55B95A68B8F1000F02D074
:1041140042F0010201E022F001025A602BE01A6C25
:10412400B8F1000F02D042F0010201E022F00102D6
:104134001A6420E0A31C06EB0309F35C052B06EBD1
:1041440004070DD1012300930DF10F0228464946BF
:10415400FFF773FFFA789DF80F301A42F2D106E0A8
:1041640000227B78009228464946FFF766FF7B7859
:1041740002331C44AAE705B0BDE8F083000004A0A4
:104184001FB50C4604A9012301F8012D0322009256
:104194002246FFF752FF04B010BD9F22FFF7F0BF85
:1041A4004E207047044B5B6C03F4E003B3F5001F2F
:1041B4008CBF12201E207047000004A00023FF22A1
:1041C400C2540133082BFAD10120704710B51449A9
:1041D400144AD1F8B040E37C13704B6853601B68F9
:1041E4009360114B1868D0605868106198685061EA
:1041F400D8689061986AD0619A6A42F4702242F455
:1042040070629A621A6A42F00F321A62B1F8C600FA
:10421400A17C00F0D5FF6420BDE8104000F0C8BFC9
:10422400141D0010A8A30004000004A0002070477F
:104234006FF00B007047002070470020704700F0BB
:10424400B7BF00F085BF00F09BBF0020704730B5BA
:1042540040EA010414F003030AD1920893421ED0E9
:1042640050F8235051F82340A5421AD10133F5E701
:1042740014F0010301D000230FE0520893420ED042
:1042840030F8135031F81340A5420AD10133F5E751
:10429400C55CCC5CA54204D101339342F8D1002023
:1042A40030BD012030BD704708B500F051FF034B0D
:1042B40001221A70BDE8084000F062BF001E001021
:1042C40008B500F045FF064B00221A70054B5A6CE6
:1042D40022F400725A64BDE8084000F051BF00BFE8
:1042E400001E0010000004A008B500F031FF064BCA
:1042F40001221A70054B5A6C22F400725A64BDE80C
:10430400084000F03DBF00BF081E0010000004A0DC
:1043140008B500F01DFF034B00221A70BDE80840E9
:1043240000F02EBF081E001038B50E4B1B685A1C37
:10433400044607D090F8C0005A42824202D2184480
:1043440000F0E0FE00F004FFD4F8B03005469978A0
:10435400B4F8C60000F034FF2846BDE8384000F049
:104364000FBF00BF2817001038B5044600F0F0FE58
:10437400D4F8B0300546D978B4F8C60000F020FF70
:1043840094F8C03013B1054B00221A60FFF7C0FF48
:104394002846BDE8384000F0F3BE00BF28170010DF
:1043A400F8B50E46044600F0D3FE0746B4F8C6003E
:1043B400094D00F0D5FE094B2E6001221A615A61A5
:1043C400B4F8C60000F0ECFE2C68384600F0D8FEC5
:1043D400C4F30720F8BD00BF000804A0000004A037
:1043E4002DE9F04700F0B4FE074600F0BDFD0028BB
:1043F40040F0BA805F4A604B946818602268D143E9
:1044040062698A429A4608D0FFF7EAFF5B485C4A31
:104414005C4B40F20E4100F0DBFE5B4B1B680F2B44
:1044240005D95A4B1B78002B40F08E800FE094F88E
:10443400C430012BF5D1D4F8B0302046197CFFF7F5
:10444400AFFFD4F8AC301B781842F4D1E9E7504BF5
:104454001B78002B78D0D4F8B0302046197CFFF7B5
:104464009FFFD4F8AC301B7818424CD02046FFF79D
:104474005BFFD4F8B0302046197CFFF791FFD4F8E5
:10448400AC301B781840F4D1D4F8C820510702D4BA
:10449400FFF72AFF58E094F8C480B8F1020FF7D16F
:1044A4003C4D3D4E01234FF00609C5F80090706164
:1044B4003361B4F8C60000F053FEB4F8C60000F04F
:1044C4006FFE4FF0FF336B60C6F81090C5F80080A4
:1044D400B4F8C60000F044FEB4F8C60000F060FE74
:1044E4002C4D05232B602C4B01225A611A61B4F820
:1044F400C60000F035FEB4F8C60000F051FE2B688B
:10450400DA05EDD4C4E7D4F8C8309B071AD5E368BC
:10451400C3B9D4F8B0302046D97BFFF741FFD4F8B3
:10452400AC309A78C0B210420CD1DB78184209D171
:10453400B4F8C6007A2100F043FEB4F8C6007A212C
:1045440000F03EFEFFF7BCFE144B00221A60144B31
:10455400DAF8002019685242914238BF1A600E4BB3
:104564005A6C22F400725A643846BDE8F04700F0F1
:1045740007BE00BF481C0010101E0010E9340108DB
:10458400C934010879300108F81D0010081E001014
:10459400001E0010000804A0000004A0341700103E
:1045A400201B001008B50B4B98680B4B1B7813B1FC
:1045B4000A4B1B7853B9FFF713FFFFF711FF0848A5
:1045C400084A094B40F2EE4100F002FEBDE8084003
:1045D400FFF7CABE481C0010001E0010081E001081
:1045E400E93401083E3501087930010810B500F0BE
:1045F400AFFD0E4A1368012B05D10024146000F0AE
:10460400BFFD20460FE01BB900F0BAFDFE200AE012
:1046140000F0B6FDFFF7E4FE0548064A064B4FF4EA
:10462400AE6100F0D5FD40B210BD00BF24170010EC
:10463400E93401087A3501087930010808B5FFF733
:10464400D5FF0028FBD108BD08B500F081FD0A4B59
:104654001A682AB901221A60BDE8084000F090BD2A
:1046640000F08EFDFFF7BCFE0448054A054B40F2FE
:104674008A5100F0ADFD00BF24170010E934010891
:10468400B63401087930010810B50446FFF7D6FFA7
:104694002046FFF769FE2046FFF7D6FF002010BD35
:1046A40038B5144B9C682368DA436369934208D095
:1046B400FFF796FE1048114A114B4FF49A6100F02F
:1046C40087FD2046FFF7BAFFD4F8B0302046197CA6
:1046D400FFF766FED4F8AC301B78184203D1FFF71D
:1046E400EFFD012500E000252046FFF7ADFF284639
:1046F40038BD00BF481C0010E93401089E3501088C
:104704007930010810B5184B9C68184B1B7813B10D
:10471400174B1B783BB1FFF763FEFFF761FE1548AB
:1047240040F2025109E02368DA436369934208D0F6
:10473400FFF756FE0F4840F204510F4A0F4B00F0AA
:1047440047FD2046FFF7F0FDD4F8B0302046197C31
:10475400FFF726FED4F8AC301B781842F4D1BDE83C
:104764001040FFF7C1BD00BF481C0010001E001020
:10477400081E0010E93401089F340108793001084B
:1047840070B50446FFF75AFF00F0E2FC124B1B78A9
:10479400064633B12046FFF7E7FD104B4FF0FF32DA
:1047A4001A60D4F8B0302046197CFFF7F9FDD4F82C
:1047B400AC301D78054003D0304600F0E1FCE3E75F
:1047C400FFF77EFD304600F0DBFC2046A561FFF7D5
:1047D4003BFF284670BD00BF081E001034170010B0
:1047E40070B5044600F0B4FC05462046FFF79CFD76
:1047F400D4F8B0302046197CFFF7D2FDD4F8AC30A1
:104804001B7810EA0306F3D1FFF76EFD284600F08B
:10481400B7FC304670BD10B5D0F8B030597C0446B2
:1048240051B1FFF7BDFDD4F8AC30DB7918420CBFB1
:1048340000206FF0000010BD084610BDF8B5D0F898
:10484400B0300D46197C04461646FFF7A9FD224BED
:104854001B789BB1214B1B7843B9FFF7C1FD20485E
:10486400204A214B40F6D33100F0B2FC2046FFF73A
:104874007BFD1E4B4FF0FF321A602BE0D4F8AC30B6
:104884001B78184226D100F063FC0746FFF718FD99
:104894002B78B3420DD0284600F052FC10B94FF0EB
:1048A400FF3507E025F01F0000F042FC2B78B342EF
:1048B400F5D10125384600F063FC012D08D12046CE
:1048C400FFF7A9FF00280CBF01204FF0FF30F8BD0F
:1048D4002846F8BD0020F8BD081E0010001E001078
:1048E400E934010823350108793001083417001030
:1048F400F8B50368DA4343699342044605D0FFF7E9
:104904006FFD2B4840F61C4125E0D0F8B030197CEF
:10491400FFF746FDD4F8B0300546D97B2046FFF7B3
:104924003FFD074600F014FCD4F8AC301A78154269
:10493400064630D1DA789B7813433B4203D1B3B9AE
:104944001C4B1B789BB11C4B1B7843B9FFF748FDEC
:10495400174840F62C41194A194B00F039FC2046FF
:10496400FFF702FD174B4FF0FF321A6013E0D4F843
:10497400C8309B0709D5B4F8C6007A2100F020FCA2
:10498400B4F8C6007A2100F01BFCFFF799FC00255F
:10499400FFF7BEFC01E06FF07805304600F0F0FB55
:1049A40025B92046BDE8F840FFF735BF2846F8BDD5
:1049B400E9340108081E0010001E001087340108A5
:1049C400793001083417001038B50B46002243F83B
:1049D40004290446606950F83200D50068B10433F4
:1049E400586060692844013240685864606905442D
:1049F40008686D6828440860ECE74FF400734A6661
:104A0400A1F868302046FFF7AFFC20460021FFF7ED
:104A14006FFF7930F9D0002038BDF8B50D46164641
:104A2400044600F095FB0746B4F8C60000F098FB76
:104A3400074B1D60A3F5006300221E615A61B4F8A0
:104A4400C60000F0ADFB3846BDE8F84000F098BB66
:104A5400000804A0D0F8B03001225978FFF7DDBF78
:104A64002DE9F743354B00919C68064620461546D0
:104A7400FFF7E4FD012384F8C430002D55D0304BFA
:104A84001B685B005F1E3740DF1BD4F8C830AF42A1
:104A940028BF2F46DB06019702D42046FFF7DAFF32
:104AA40094F8C530042BD4F8B0303146187806D1C8
:104AB4006A4601ABFFF759FA8046082003E0FFF786
:104AC4004BFA804604209DE80600FFF773FA00F0D5
:104AD4003FFB94F8C5201B4B01323A441A61002273
:104AE4005A61C3F800888146FFF7DEFBB4F8C600BC
:104AF40000F036FBB4F8C60000F052FB484600F064
:104B04003FFBD4F8B0302046197CFFF749FCD4F8B9
:104B1400AC301B781842F4D1FFF7D2FB9DE80C00AF
:104B240013440093ED1B3E44A7E784F8C450204689
:104B3400FFF78AFD03B0BDE8F08300BF481C0010F6
:104B4400F81D0010000004A02DE9F34798460368FF
:104B54000092DA434369934204460F4608D0FFF7B4
:104B64003FFC4748474A484B40F6D21100F030FB1F
:104B7400FFF764FD012384F8C43020460021FFF7C9
:104B8400B7FE10F1790F0646F7D0B8F1000F69D0DF
:104B94003E4BDDF800901B685B005D1E3D405D1BD5
:104BA400454528BF454619F0006F019509D00022FC
:104BB400AA42374B04D019F8021099540132F7E78E
:104BC4009946D4F8C830DB0602D42046FFF742FFEA
:104BD40094F8C530042BD4F8B0303946187806D18F
:104BE4006A4601ABFFF7C1F90646082003E0FFF768
:104BF400B3F9064604209DE80600FFF7DBF900F050
:104C0400A7FA244B1E6094F8C520A3F50063013273
:104C14002A441A6100225A618246FFF745FBB4F820
:104C2400C60000F09DFAB4F8C60000F0B9FA504688
:104C340000F0A6FA09EB050305EB070A20460AF182
:104C4400FF3113F8012CFFF7F9FD06460028F1D0D7
:104C54009DE80C00012813440093C5EB080801D11A
:104C6400574692E70023204684F8C430FFF7ECFC53
:104C7400012E14BF3046002002B0BDE8F08700BF0B
:104C8400E93401086735010879300108F81D00107E
:104C9400241B0010000804A070B5D0F8C830DB064F
:104CA40004460D4601D4FFF7D5FE00F051FA06463E
:104CB400FFF7FAFAD4F8B030B4F8C600597994F88A
:104CC400C5302A46FFF724F93046BDE8704000F0AD
:104CD40057BA2DE9F8430368DA434369934204461B
:104CE400894605D0FFF77CFB3C4840F6EE2145E0C1
:104CF400FFF7A4FC02234FEA196884F8C43029F0B2
:104D04007F4920464946FFF7F3FD10F1790F074626
:104D1400F7D0A06900F03CFAB4F8BA20830A134231
:104D240006460CD10A210125D80709D4D00702D59B
:104D340001268E401D4652085B080131F4E7012527
:104D4400B6F5004F09D0B6F5803F0ED0B6F5805FBA
:104D54000FD1D4F8B0309A7902E0D4F8B030DA79CF
:104D6400B8F1FB0F5A710DD116E0D4F8B0301A7AAD
:104D7400F6E7FFF735FB194840F63231184A194B6C
:104D840000F026FAB8F1FC0F0AD0B8F1FA0F0BD1F3
:104D9400D4F8B0309A7906E0D4F8B030DA7902E089
:104DA400D4F8B0301A7A5A71D4F8188075B1204604
:104DB4004146FFF771FF20464946FFF799FD10F180
:104DC400790F0746F7D0013DB044EFE7204684F859
:104DD400C450FFF739FC3846BDE8F883E9340108CC
:104DE4008C350108793001082DE9F74305468846DA
:104DF40017461E46BDF8289000F0AAF9CDF8009099
:104E04000446414628463A463346FFF716F92046FB
:104E140003B0BDE8F04300F0B3B91FB50B4B5B68BA
:104E240013F0010FD0F8B030B0F8C60014BF9B7A6D
:104E34005B7A8DF80F3003230A4600930DF10F01BE
:104E44000123FFF7D1FF05B05DF804FB000004A0C7
:104E54001FB50446D4F8B010B4F8C600012300937B
:104E64000DF10F021031FFF7E8F8D4F8AC301A78DE
:104E74009DF80F301A42EDD104B010BD1FB5D0F823
:104E8400C030194A23F0FF039342044629D0D0F8D6
:104E9400B030B0F8C600597800F092F92046FFF718
:104EA400D7FFD4F8B010B4F8C600012300930B3137
:104EB4000DF10F02FFF7C1F8D4F8B030B4F8C60012
:104EC400197BD4F8AC305A791B7913439DF80F2021
:104ED40022EA030343EA012100F072F92046FFF7B6
:104EE400B7FF002004B010BD00C22016F0B585B095
:104EF40004ACAF2304F8053D06461546FFF7A1F9B7
:104F040003230746009330460123214603AAFFF7F3
:104F140094F83846FFF797F99DF80C30013BDBB263
:104F2400FD2B11D99F238DF80B30FFF78AF903234A
:104F3400074600933046214603AA0123FFF77DF874
:104F44003846FFF780F904E003A800F011F90028BF
:104F5400E8D09DF80C302B809DF80D306B809DF8C7
:104F64000E30AB8005B0F0BD014B93F900007047E3
:104F7400D0A30004F0B54469002365688C4622463A
:104F84001E46654502F1080207D812E9820007FBB4
:104F94000166576801333D44F3E704EBC3024068FC
:104FA40052680CEB02014D1B54F8331001FB0566EB
:104FB4003044F0BD2DE9F84380463AB1FFF710FACA
:104FC4003148324A324B9B2100F002F901F00706C6
:104FD40000EB061505F128077A68541C2D4C40D0C7
:104FE4008A4238D06A6BB2F1FF3F25D08A421DD085
:104FF400DFF8A8E0D4F80090DEF800200132CEF803
:105004000020012202FA06F616EA090F06D06963A7
:10501400FFF7B0FF29EA0606A86305E07960FFF709
:10502400A9FF46EA0906B860266028E01A4BA86B77
:105034001A6801321A6007E0184F69633A6801324E
:105044003A60FFF797FFA863012303FA06F6236883
:1050540023EA060312E0104BB8681A6801321A609A
:1050640007E00E4D79602A6801322A60FFF782FF5B
:10507400B860012303FA06F6236833432360C8F8B3
:105084001800BDE8F88300BF7A390108B039010877
:1050940079300108041E0010141E00100C1E0010AC
:1050A40010B5426950680023884205D8013302EBE9
:1050B400C30464682044F7E752F8330010BD70B5A8
:1050C400426992E8280000205D43044602F10C0383
:1050D4008D4205D352F83430B1FBF3F1084470BD6E
:1050E400083353F8146C56B153F8106C491B304410
:1050F40053F80C5C53F8086C01347543E8E74FF03F
:10510400FF3070BD08B500F053F838B1FFF768F907
:105114000348044A044BF92100F05AF808BD00BFC3
:105124007A3901086A390108793001080000000061
:1051340001B40248844601BC604700BF01800004FA
:1051440001B40248844601BC604700BF89060108D7
:1051540001B40248844601BC604700BFAD8300042B
:1051640001B40248844601BC604700BFD1830004F7
:1051740001B40248844601BC604700BFD519010848
:1051840001B40248844601BC604700BFC1830004E7
:1051940001B40248844601BC604700BFBD1A01083F
:1051A40001B40248844601BC604700BF95840004F2
:1051B40001B40248844601BC604700BFE581000495
:1051C40001B40248844601BC604700BFA7840004C0
:1051D40001B40248844601BC604700BF9D20010819
:0851E4001CED000801000000B1
:1051EC00000000A0000000A0000000A0000000A033
:1051FC00000000A0000000A0000000A0000000A023
:10520C00000027A0000027A0000092A0000192A09F
:10521C00000292A0000392A0000492A0000592A0AC
:10522C00000692A0000792A0000092A2000192A298
:10523C00000000A0000000A0000023A0000023A09C
:10524C00000023A0000023A0080200A0080300A077
:10525C00080223A0080323A0080423A0080523A008
:10526C0010121416181A1C1E10120204020406083E
:10527C00000100A0100900A0100A00A0100B00A053
:10528C00100C00A0100D00A0100E00A0100F00A01C
:10529C00101000A0100927A0100A27A0000000A0E1
:1052AC00000002A201000000FFFFFFFFFFFF000053
:1052BC0001000000FFFFFFFF323032302F31322F60
:1052CC0033302031303A30313A313020474D542090
:1052DC002D30363A3030006D74323532335F6864BD
:1052EC006B0053444B5F56342E362E3100000000B9
:1052FC0000000000343D0108543D0108743D0108D4
:10530C000000000000000000000000000000000091
:10531C00333C010800000000000000000000000009
:10532C000000000000000000000000000000000071
:10533C000000000000000000000000000000000061
:10534C000000000000000000000000000000000051
:04535C0070170010B6
:1053600038B510F01F0504460FD100F0CFF9084BF7
:1053700024F01F045C605A6842F005025A60BFF3D3
:105380006F8F00F0CDF9284600E0F92040B238BD1B
:10539000000088A070B545180143CB06044610D123
:1053A00000F0B4F90646AC4204D22046FFF7D8FF1D
:1053B0002034F8E7BFF36F8F304600F0B1F90020DA
:1053C00000E0F92040B270BD08B500F09FF90B4B2A
:1053D0005A6822F01E025A605A6842F013025A605C
:1053E0005A6822F01E025A605A6842F003025A605C
:1053F000BFF36F8F00F094F9002008BD000088A073
:1054000038B510F01F0504460FD100F07FF9084BA6
:1054100024F01F045C605A6842F015025A60BFF322
:105420006F8F00F07DF9284600E0F92040B238BDCA
:10543000000088A070B545180143CB06044610D182
:1054400000F064F90646AC4204D22046FFF7D8FFCC
:105450002034F8E7BFF36F8F304600F061F9002089
:1054600000E0F92040B270BD08B500F04FF9074BDD
:105470005A6822F01E025A605A6842F013025A60BB
:10548000BFF36F8F00F04CF9002008BD000088A02A
:10549000F8B50D46044688B9154F164E97F85030AA
:1054A000012B07D070691021224600F0E7F8012394
:1054B00087F85030706900F076F813E0012814D1B5
:1054C0000B4F0C4E97F84030012B06D0306900216D
:1054D0000C2200F0D3F887F84040306900F063F800
:1054E00000F0B8F82860002000E0FF2040B2F8BDCE
:1054F000A0AC000490A300041AB1081A10600020A8
:1055000000E0FF2040B2704770B50C4D0C4C95F890
:105510005030012B064607D060691021002200F0B0
:10552000ADF8012385F850303046646900F03DF84D
:105530000146204600F0ADF8002070BDA0AC00048C
:1055400090A3000470B50C4D0C4C95F84030012B25
:10555000064607D0206900210C2200F08FF80123B5
:1055600085F840303046246900F05FF80146204657
:1055700000F08FF8002070BDA0AC000490A30004E0
:1055800010B584B2000C4C43414301EB1441B1FB14
:10559000F2F302FB1311A4B204EB0141B1FBF2F0F0
:1055A00000EB034010BD40697047C300191A0A227E
:1055B000B1FBF2F1062210B542436424B2FBF4F2CF
:1055C0000A4402EB40104FF47A72B3FBF2F3184432
:1055D00010BD70B50D4C23782646B3B900F074FCAD
:1055E0000B4D68B102F058F8286018B146F290539C
:1055F000984208D146F290532B600023337070BD5F
:1056000046F290532B600123237070BD8CA30004DD
:105610009CAC000408B5422001F0B2F920B9422048
:10562000BDE8084001F0A8B908BD10B50446FFF771
:10563000D0FF00F049FC40B1054B2046196846F206
:105640009052BDE81040FFF79BBF204610BD00BF41
:105650009CAC000410B50446FFF7BBFF00F034FC1F
:1056600040B1054B204646F290511A68BDE8104003
:10567000FFF786BF204610BD9CAC000470B5044601
:105680000D4616463543FFF7C5FF3123656023609D
:1056900070BD43695A1C1144994203D943698B4236
:1056A000FCD3704742699A42FCD243698B42FCD3D7
:1056B000704700BF08B501F0F7FF104A5068103876
:1056C00000F0FF003F2816D840B20D4B53F83010C1
:1056D00031B90C480C4AE72101F0D6FFFC200BE061
:1056E000516803EBC002C1F38051516053F8303070
:1056F0009847002000E0FD2040B208BD00ED00E02A
:10570000201900100733010814340108EFF3128048
:10571000042383F31188BFF35F8FBFF36F8F70474C
:1057200080F31188BFF35F8FBFF36F8F7047000066
:1057300008B5124A536C43F400735364136808B9F4
:10574000526802E0012805D1126CD2070AD543F055
:10575000100307E001F0A8FF09480A4A0A4B61213B
:1057600001F0AAFF43F00803044A516C8804FBD5FA
:105770009168C905FCD5014A136008BD000004A06A
:105780003C34010879340108793001080D4B1A685E
:1057900022F0805222F014021A601968094A89071F
:1057A000FBD4136823F008031360064B1A68120732
:1057B000FBD4054A12781AB95A6C22F400725A6462
:1057C000704700BF000004A0001E0010084A1368C4
:1057D000012808BF43F0805343F00C0313601368A3
:1057E0009B07FCD5024B186810F00100FAD17047F6
:1057F000000004A010B50446FFF7E8FF2046BDE80E
:105800001040FFF7C3BFF8B5002306460C461D46FF
:10581000DFB2013324B1E2B242EA0525240AF7E7F8
:105820006FB13046FFF784FF054B1D60A3F50063A1
:1058300030461F615C61BDE8F840FFF7DBBFF8BD93
:10584000000804A010B50F4C0F4BE2681A602269E3
:105850005A6062699A60A269DA60E2699A621A6AB9
:1058600002F0F0321A6200202178FFF7CCFF6420AA
:10587000FFF768FE6368A2681B689A4200D0FEE7E3
:1058800010BD00BFA8A30004000004A0094A0A4BF1
:10589000116A09B999681162526A12B9054A996A7E
:1058A00051629A68002122F0FF029A6002209962F8
:1058B00000F058BFA8A30004000004A0064A136A21
:1058C0000BB106498B60536A0BB1044A9362022004
:1058D000072100F047BF00BFA8A30004000004A0F8
:1058E000094B1B680005C3F86001D3F8602142F43E
:1058F0008032C3F86021D3F86021D207FBD5D3F8FA
:105900006001C0F307207047D4A30004094B0005D1
:105910001B6840F4003040EA0161C3F86011D3F81D
:10592000602142F48032C3F86021D3F86021D207AD
:10593000FBD57047D4A300040E4A0F4B5168196081
:1059400091685960D16899601169D960516919618C
:1059500091695961D1699961116AD961516A196274
:10596000916A5962D16A9962116B526BD9621A635A
:10597000704700BFD4A3000400AD0004074B1B68B0
:1059800045F23142C3F8702145F20902C3F878218B
:1059900045F24602C3F8802100207047D4A30004DA
:1059A00073B5294B93E80300284B1B688DE803006F
:1059B00000216C46C3F800130E030022A5580020F6
:1059C000C3F8000346EA05453F20C3F80803C3F8BF
:1059D0000053D3F8000340F4497040F00100C3F8CD
:1059E0000003D3F818038007FBD5D3F8180310F091
:1059F000010019D1C3F8000345F400553F20C3F856
:105A00000803C3F80053D3F8000340F4497040F092
:105A10000100C3F80003D3F818038507FBD5D3F8BA
:105A2000180310F0010005D00022C3F800234FF046
:105A3000FF3007E00432082AC0D101310229BBD16E
:105A4000C3F8000302B070BDE02F0108D4A3000426
:105A500008B5FFF7A5FF003018BF0120404208BD80
:105A600038B5144D2B680022C3F890201F24C3F8CA
:105A7000D020C3F8D820C3F8E020220442EA046210
:105A80002B68224342EA0422C3F8D020C3F8D8206E
:105A9000FFF7DEFF68B114F1FF34EED201242B686A
:105AA0002204C3F8E020FFF7D3FF10B10134202C0B
:105AB000F5D138BDD4A3000410B5204B204C0022F2
:105AC0001A6023680122C3F84821D3F848219207BD
